:100000000A128A11FB2F00308A000408840A820732
:1000100000345334543453343334303433340034B0
:10002000543473346B346F346C3469340034483472
:0A0030006134753473347434003405
:100D1E00F30083120313061673080A128A11D426DF
:100D2E000A128A110800F3008312031306127308C5
:100D3E00803E0A128A11D4260A128A1108008312E2
:100D4E000313061201300A128A11D4260A128A11CE
:100D5E000630F4003030F300F30BB32EF40BB32E49
:100D6E0000000800F7007708F60006300310F60DB5
:100D7E00FF3E031DBD2E74087607BF3E0A128A1170
:100D8E009A260A128A1183120313061675080A127E
:100D9E008A11D4260A128A110800F2001A30F000C5
:100DAE00F00BD72E00007208F00004300310F00C88
:100DBE00FF3E031DDD2E0F307005F100831203136D
:100DCE000608F03971048600861686128530F0000A
:100DDE00F00BEF2E0F307205F0008312031306088E
:100DEE00F03970048600861686128530F000F00BFE
:100DFE00FE2E0800F7007708F60006300310F60DF9
:100E0E00FF3E031D052F74087607BF3E0A128A1196
:100E1E009A260A128A11831203130616262F7508B4
:100E2E0084000A128A1103200A128A110A128A11E8
:100E3E00D4260A128A110130FF007F08F5077508C3
:100E4E0084000A128A1103200A128A11003A031D25
:100E5E00312F322F162F0800803083160313860091
:100E6E008316031788018901831203130612861253
:100E7E0006133430F600F130F500F50B442FF60B67
:100E8E00442F492F831203130608F03903388600C6
:100E9E00861686120D30F600FB30F500F50B552F39
:100EAE00F60B552F5A2F8312031386168612853092
:100EBE00F500F50B602F831203138616861285300C
:100ECE00F500F50B682F831203130608F03902386C
:100EDE008600861686120D30F600FB30F500F50BF7
:100EEE00762FF60B762F7B2F28300A128A11D426F6
:100EFE000A128A110A128A11A6260A128A110630BD
:100F0E000A128A11D4260A128A110C300A128A1178
:100F1E00D4260A128A1108007530831603138F0027
:100F2E0083160317880189018312031707087F3977
:100F3E00870008087F3988008B018312031385010F
:100F4E0086018701880189018316031385018601B5
:100F5E008701880189010A128A1133270A128A1120
:100F6E000830F800F401F40A7808F50001300A128E
:100F7E008A1101270A128A110930F4000130F50096
:100F8E0001300A128A1101270A128A11F401F40A99
:100F9E000F30F50002300A128A1101270A128A1147
:100FAE000730F4003230F50002300A128A11B926E9
:100FBE000A128A110830F4003030F50002300A129D
:100FCE008A11B9260A128A1131300A128A118F2615
:100FDE000A128A1132300A128A118F260A128A11C7
:100FEE00B72F0A128A110028F80183010A128A11FA
:020FFE00932F2F
:04400E00E42FFF3F5D
:00000001FF
