:060000000A128A11DB2F39
:100008004634003464340034F300831203130612B8
:100018007308803E0A128A15E0220A128A11080023
:10002800F8007808F70006300310F70DFF3E031DAF
:10003800182874087707BF3E0A128A1108200A1286
:100048008A118312031306163D287608FF007508E7
:1000580084000A128A1500200A128A110A128A15C7
:10006800E0220A128A110130F5070318F60A003057
:10007800F607760883120313FF00750884000A1236
:100088008A1500200A128A11003A031D4C284D28AF
:10009800292808000430FC008E30FB001230FA00DA
:1000A800FA0B5428FB0B5428FC0B54280000FF3093
:1000B80083120313CC00FF30CD00F401F40A0130A1
:1000C800F5009030F60002300A128A1114200A1244
:1000D8008A11EC28F401F40A1430F5009130F60086
:1000E80001300A128A1114200A128A11F401F40A42
:1000F8006630F5009130F60002300A128A11142099
:100108000A128A110A128A150A260A128A11710815
:1001180083120313CD007008CC004D08803AFF000D
:1001280080307F02031D9A2801304C0203189D2855
:100138009E28C028831203134D08803AFF008030A0
:100148007F02031DA92804304C02031CAC28AD28EB
:10015800C028FF3083120313CC00FF30CD000630D7
:10016800FC001330FB00AD30FA00FA0BB928FB0B8A
:10017800B928FC0BB928C028831203134D08803A0C
:10018800FF0080307F02031DCB2801304C02031C86
:10019800CE28CF28EC28831203134D08803AFF009D
:1001A80080307F02031DDA2804304C020318DD2852
:1001B800DE28EC28831203134D08B7004C08B6005C
:1001C8002730FB00F530FA00FA0BE828FB0BE8288B
:1001D800831203134C0A031DF6284D0A0319F52848
:1001E800F6286E284C08303E0A128A15A7220A12F1
:1001F8008A112730FB00F530FA00FA0B0129FB0BB6
:100208000129FF3083120313CC00FF30CD000430E6
:10021800FC008E30FB001230FA00FA0B1129FB0BA0
:100228001129FC0B11290000F401F40A0130F50032
:100238009030F60002300A128A1114200A128A112C
:10024800A329F401F40A1430F5009130F6000130C6
:100258000A128A1114200A128A11F401F40A6F3062
:10026800F5009130F60002300A128A1114200A12A1
:100278008A110A128A150A260A128A11710883122B
:100288000313CD007008CC004D08803AFF00803081
:100298007F02031D512901304C02031854295529A6
:1002A8007729831203134D08803AFF0080307F02BC
:1002B800031D602904304C02031C63296429772933
:1002C800FF3083120313CC00FF30CD000630FC0052
:1002D8001330FB00AD30FA00FA0B7029FB0B7029C4
:1002E800FC0B70297729831203134D08803AFF000D
:1002F80080307F02031D822901304C02031C8529AE
:100308008629A329831203134D08803AFF00803001
:100318007F02031D912904304C0203189429952962
:10032800A329831203134D08B5004C08B4002730E5
:10033800FB00F530FA00FA0B9F29FB0B9F2983126B
:1003480003134C0A031DAD294D0A0319AC29AD2925
:1003580025294C08303E0A128A15A7220A128A114A
:100368002730FB00F530FA00FA0BB829FB0BB82947
:10037800FF3083120313CC00FF30CD000430FC00A3
:100388008E30FB001230FA00FA0BC829FB0BC82983
:10039800FC0BC8290000F401F40A0130F500903084
:1003A800F60002300A128A1114200A128A115A2AF7
:1003B800F401F40A1430F5009130F60001300A1205
:1003C8008A1114200A128A11F401F40A7830F5000F
:1003D8009130F60002300A128A1114200A128A118A
:1003E8000A128A150A260A128A117108831203133F
:1003F800CD007008CC004D08803AFF0080307F02A5
:10040800031D082A01304C0203180B2A0C2A2E2A35
:10041800831203134D08803AFF0080307F02031DCA
:10042800172A04304C02031C1A2A1B2A2E2AFF30D2
:1004380083120313CC00FF30CD000630FC001330CC
:10044800FB00AD30FA00FA0B272AFB0B272AFC0B1E
:10045800272A2E2A831203134D08803AFF00803082
:100468007F02031D392A01304C02031C3C2A3D2A15
:100478005A2A831203134D08803AFF0080307F0206
:10048800031D482A04304C0203184B2A4C2A5A2AC6
:10049800831203134D08B3004C08B2002730FB0049
:1004A800F530FA00FA0B562AFB0B562A831203136F
:1004B8004C0A031D642A4D0A0319632A642ADC299D
:1004C8004C08303E0A128A15A7220A128A112730D0
:1004D800FB00F530FA00FA0B6F2AFB0B6F2AFF308E
:1004E80083120313CC00FF30CD000430FC008E30A3
:1004F800FB001230FA00FA0B7F2AFB0B7F2AFC0B59
:100508007F2A0000F401F40A0130F5009030F6006B
:1005180002300A128A1114200A128A11112BF401CE
:10052800F40A1430F5009130F60001300A128A11ED
:1005380014200A128A11F401F40A8130F50091306E
:10054800F60002300A128A1114200A128A110A12BD
:100558008A150A260A128A11710883120313CD001C
:100568007008CC004D08803AFF0080307F02031DE0
:10057800BF2A01304C02031CC22AC32AD22A831282
:1005880003134D08803AFF0080307F02031DCE2AF6
:1005980004304C02031CD12AD22AE52AFF308312E8
:1005A8000313CC00FF30CD000630FC001330FB00F5
:1005B800AD30FA00FA0BDE2AFB0BDE2AFC0BDE2A32
:1005C800E52A831203134D08803AFF0080307F022A
:1005D800031DF02A01304C02031CF32AF42A112BC4
:1005E800831203134D08803AFF0080307F02031DF9
:1005F800FF2A04304C020318022B032B112B831201
:1006080003134D08B1004C08B0002730FB00F5304B
:10061800FA00FA0B0D2BFB0B0D2B831203134C0A5C
:10062800031D1B2B4D0A03191A2B1B2B932A4C084D
:10063800303E0A128A15A7220A128A112730FB00B7
:10064800F530FA00FA0B262BFB0B262B0430FC00A6
:100658008E30FB001230FA00FA0B302BFB0B302BDC
:10066800FC0B302B0000F401F40A0130F500903047
:10067800F60001300A128A1114200A128A11F401B4
:10068800F40A0130F5009030F60002300A128A119F
:1006980014200A128A110230FC008630FB009930BF
:1006A800FA00FA0B552BFB0B552BFC0B552B0800AE
:1006B800831203132E082F04031D632B642B712B45
:1006C800C401C501B801B9010130AE000030AF0066
:1006D8000A128A114E200A128A1104308312031357
:1006E800D0008E30CF001130CE00CE0B792BCF0B3F
:1006F800792BD00B792B802B83120313851F852B25
:10070800862BBC2BF401F40A0130F5009030F6007A
:1007180001300A128A1114200A128A110230F400D8
:100728000130F5009030F60001300A128A111420C9
:100738000A128A11F401F40A5030F5009130F600DB
:1007480001300A128A1114200A128A118312031323
:10075800851BAF2BB02B9E2BF401F40A0130F5005A
:100768009030F60001300A128A1114200A128A11F8
:100778000A128A150A260A128A11710883120313AB
:10078800D2007008D100F401F40A3430F500913039
:10079800F60001300A128A1114200A128A11F40193
:1007A800F40A2430F5009130F60002300A128A115A
:1007B80014200A128A1183120313510A031DE92B0C
:1007C800520A0319E82BE92BBC2B51085204031DCC
:1007D800EE2BEF2BF22BAE01AF01D22F0A305106D0
:1007E8005204031DF82BF92BD22F851FFC2BFD2B50
:1007F800422CF401F40A0130F5009030F600013083
:100808000A128A1114200A128A110230F4000130E7
:10081800F5009030F60001300A128A1114200A12ED
:100828008A11F401F40A5030F5009130F6000130D5
:100838000A128A1114200A128A1183120313851BC3
:10084800262C272C152CF401F40A0130F5009030E1
:10085800F60001300A128A1114200A128A11043093
:1008680083120313D0008E30CF001130CE00CE0B90
:100878003B2CCF0B3B2CD00B3B2C422C831203136D
:1008880007148714F401F40A0130F5009030F600DB
:1008980001300A128A1114200A128A11F401F40A8A
:1008A8000130F5009030F60002300A128A11142047
:1008B8000A128A11F401F40A5C30F5009130F6004E
:1008C80001300A128A1114200A128A1183120313A2
:1008D800AC01AD01033083120313D0000830CF0000
:1008E8007630CE00CE0B762CCF0B762CD00B762C18
:1008F8000000F401F40AA230F5009130F60002304D
:100908000A128A1114200A128A118312031342034D
:100918004304031D902C912C972C0130C607031813
:10092800C70A0030C707061F9A2C9B2CCF2C013012
:10093800C2000030C3000130C0070318C10A0030EC
:10094800C1070130BE070318BF0A0030BF074A08B5
:100958004B04031DB02CB12CE82C4108803AFF0051
:1009680080307F02031DBA2C64304002031CBD2C6A
:10097800BE2CE82C013083120313CA000030CB00D0
:100988000130C4070318C50A0030C507C001C101FA
:10099800BE01BF01E82C061BD22CD32CE82C3F0843
:1009A800803AFF0080307F02031DDC2C64303E0259
:1009B800031CDF2CE02CE82C83120313CA01CB01A3
:1009C800C001C101BE01BF0183120313861FED2CB4
:1009D800EE2C222D0130C2000030C3000130BC07CC
:1009E8000318BD0A0030BD070130BA070318BB0A57
:1009F8000030BB0748084904031D032D042D3B2D77
:100A08003D08803AFF0080307F02031D0D2D6430C1
:100A18003C02031C102D112D3B2D013083120313B2
:100A2800C8000030C9000130C4070318C50A0030E7
:100A3800C507BC01BD01BA01BB013B2D861B252D95
:100A4800262D3B2D3B08803AFF0080307F02031D96
:100A58002F2D64303A02031C322D332D3B2D831287
:100A68000313C801C901BC01BD01BA01BB0183124E
:100A78000313051C402D412D892C07104203430404
:100A8800031D472D482D4E2D0130C6070318C70AF0
:100A98000030C707061F512D522D862D0130C20088
:100AA8000030C3000130C0070318C10A0030C10775
:100AB8000130BE070318BF0A0030BF074A084B04BD
:100AC800031D672D682D9F2D4108803AFF00803057
:100AD8007F02031D712D64304002031C742D752D97
:100AE8009F2D013083120313CA000030CB00013060
:100AF800C4070318C50A0030C507C001C101BE01FB
:100B0800BF019F2D061B892D8A2D9F2D3F08803AF6
:100B1800FF0080307F02031D932D64303E02031CCA
:100B2800962D972D9F2D83120313CA01CB01C00167
:100B3800C101BE01BF0183120313861FA42DA52D79
:100B4800D92D0130C2000030C3000130BC070318A2
:100B5800BD0A0030BD070130BA070318BB0A0030D0
:100B6800BB0748084904031DBA2DBB2DF22D3D08CB
:100B7800803AFF0080307F02031DC42D64303C02A0
:100B8800031CC72DC82DF22D013083120313C80092
:100B98000030C9000130C4070318C50A0030C50772
:100BA800BC01BD01BA01BB01F22D861BDC2DDD2D78
:100BB800F22D3B08803AFF0080307F02031DE62DAE
:100BC80064303A02031CE92DEA2DF22D8312031337
:100BD800C801C901BC01BD01BA01BB0183120313DD
:100BE8004708803AFF0080307F02031DFD2D463004
:100BF80046020318002E012E102E831203134508F7
:100C0800803AFF0080307F02031D0C2E043044021E
:100C1800031C0F2E102E162E013083120313B8005A
:100C28000030B900831203133808390403191D2E44
:100C38001E2E422D0730F4004408303EF5000230E5
:100C48000A128A15C5220A128A11F401F40A01301F
:100C5800F5009030F60001300A128A1114200A12A9
:100C68008A11F401F40A9330F5009130F60001304E
:100C78000A128A1114200A128A11831203134403D8
:100C88004504031D482E492E4E2E3708AD00360860
:100C9800AC00722E023044064504031D542E552E16
:100CA8005A2E3508AD003408AC00722E03304406C5
:100CB8004504031D602E612E662E3308AD003208F0
:100CC800AC00722E043044064504031D6C2E6D2EB4
:100CD800722E3108AD003008AC00722E0830F400D6
:100CE8002C08303EF50001300A128A15C5220A1276
:100CF8008A11831203132C032D04031D842E852EC1
:100D0800EB2E8714851E892E8A2E852E851E8D2E04
:100D18008E2E9E2E8710023083120313D0000430CB
:100D2800CF00B930CE00CE0B972ECF0B972ED00B1D
:100D3800972E9E2E83120313851EA32EA42EB92E42
:100D48000715851CA82EA92EA42E07110230831280
:100D58000313D0008630CF009830CE00CE0BB22ED1
:100D6800CF0BB22ED00BB22E000083120313851CBA
:100D7800BE2EBF2E572F8715051DC32EC42EBF2E7E
:100D88008711023083120313D0008630CF009830C9
:100D9800CE00CE0BCD2ECF0BCD2ED00BCD2E0000FE
:100DA80083120313B801B901C401C501C201C3010B
:100DB800AC01AD01F401F40A0030F5009030F60002
:100DC80001300A128A1114200A128A11572F023090
:100DD8002C062D04031DF12EF22E572F8714051F04
:100DE800F62EF72EF22E051FFA2EFB2E0B2F87104C
:100DF800023083120313D0000430CF00B930CE0084
:100E0800CE0B042FCF0B042FD00B042F0B2F8312E4
:100E18000313051F102F112F262F0716851D152FB9
:100E2800162F112F0712023083120313D0008630B9
:100E3800CF009830CE00CE0B1F2FCF0B1F2FD00B1B
:100E48001F2F000083120313851D2B2F2C2F572FC4
:100E58008716051E302F312F2C2F87120230831250
:100E68000313D0008630CF009830CE00CE0B3A2F37
:100E7800CF0B3A2FD00B3A2F000083120313B8017F
:100E8800B901C401C501C201C301AC01AD01F4013E
:100E9800F40A0030F5009030F60001300A128A1189
:100EA80014200A128A110330831203132C062D040E
:100EB800031D5F2F602FD22F622F8714091C652F07
:100EC800662F612F091C692F6A2F832F8710F40161
:100ED800F40A0130F5009030F60001300A128A1148
:100EE80014200A128A11F401F40A0130F500903036
:100EF800F60002300A128A1114200A128A11F4012B
:100F0800F40A4330F5009130F60001300A128A11D4
:100F180014200A128A11F401F40A9B30F50091306A
:100F2800F60002300A128A1114200A128A1183125A
:100F380003130918A02FA12F832F02308312031344
:100F4800D0008630CF009830CE00CE0BA92FCF0B23
:100F5800A92FD00BA92F000083120313B801B901E0
:100F6800C401C501C201C301AC01AD01F401F40A19
:100F78000030F5009030F60001300A128A11142072
:100F88000A128A11F401F40A0030F5009030F600D4
:100F980002300A128A1114200A128A1183120313CA
:100FA8002E032F040319D92FDA2FBC2B08000A129D
:100FB8008A1104200A128A11D8000A128A110520FF
:100FC8000A128A11D9000A128A1106200A128A11F5
:100FD800DA000A128A1107200A128A11DB00831329
:100FE800203084004C300A128A159F220A128A1176
:100FF80083010A128A15A22BFF1B0A2883137F1864
:1010080083170008840A0319FF0A08007F087F393C
:0C1018008A000408840A0319FF0A820001
:10153E0064008001840A0406031900340406A02AFC
:10154E00F30083120313061673080A128A15E0229B
:10155E000A128A15080083120313061201300A12AA
:10156E008A15E0220A128A150630F4003030F30094
:10157E00F30BBF2AF40BBF2A00000800F700770810
:10158E00F60006300310F60DFF3E031DC92A74083F
:10159E007607BF3E0A128A1108200A128A15831294
:1015AE000313061675080A128A15E0220A128A1506
:1015BE000800F2001A30F000F00BE32A0000720867
:1015CE00F00004300310F00CFF3E031DE92A0F302B
:1015DE007005F100831203130608F03971048600BA
:1015EE00861686128530F000F00BFB2A0F3072053E
:1015FE00F000831203130608F03970048600861675
:10160E0086128530F000F00B0A2B0800F401F40A64
:10161E008A30F5009130F60001300A128A1114203A
:10162E000A128A158312031305181E2B1F2B252B46
:10163E000714051C232B242B1F2B07100519282BF1
:10164E00292B2F2B8715051D2D2B2E2B292B871183
:10165E00051A322B332B392B8716051E372B382BB9
:10166E00332B8712F401F40A0130F5009030F600A6
:10167E0001300A128A1114200A128A1508008316E4
:10168E0003178801890183120313061286120613AB
:10169E003430F600F130F500F50B532BF60B532BCF
:1016AE00582B831203130608F0390338860086166A
:1016BE0086120D30F600FB30F500F50B642BF60BA1
:1016CE00642B692B83120313861686128530F50060
:1016DE00F50B6F2B83120313861686128530F500D9
:1016EE00F50B772B831203130608F03902388600A8
:1016FE00861686120D30F600FB30F500F50B852BA5
:10170E00F60B852B8A2B28300A128A15E0220A1234
:10171E008A150A128A15B2220A128A1506300A1280
:10172E008A15E0220A128A150C300A128A15E02256
:10173E000A128A1508007530831603138F0083165C
:10174E000317880189018312031707087F39870061
:10175E0008087F3988008B010B108B158316031335
:10176E00161796170B178C168B17831203138501FA
:10177E008601870188018901FF30831603138500D6
:10178E00C03086008701F0308800013089000A12CF
:10179E008A1546230A128A150A128A150D230A1271
:1017AE008A158312031385010A128A150A260A1254
:1017BE008A15710883120313D7007008D600560AD3
:1017CE00031DED2B570A031DED2BEE2B172CF401E9
:1017DE00F40A2430F5009030F60001300A128A1116
:1017EE0014200A128A15F401F40A3630F5009030EE
:1017FE00F60002300A128A1114200A128A15831278
:10180E0003138701033083120313D5008A30D400EB
:10181E005530D300D30B112CD40B112CD50B112C0E
:10182E000A308312031356065704031D1F2C202C57
:10183E004C2CF401F40A0130F5009030F600013022
:10184E000A128A1114200A128A15F401F40A0130C0
:10185E00F5009030F60002300A128A1114200A1296
:10186E008A150A128A115C230A128A150330831212
:10187E000313D5008A30D4005530D300D30B452C3A
:10188E00D40B452CD50B452C712C0B30560657041A
:10189E00031D522C532C712CF401F40A0130F50067
:1018AE009030F60001300A128A1114200A128A159D
:1018BE00F401F40A0130F5009030F60002300A12FD
:1018CE008A1114200A128A150A128A15BA240A12CB
:1018DE008A153D2C83120313560A031D7B2C570ABF
:1018EE0003197A2C7B2CD82B0A3056065704031971
:1018FE00812C822CD82B0B30560657040319882CBA
:10190E00892CD82B0D305606570403198F2C902C8A
:10191E00D82BF401F40A4830F5009030F60001306F
:10192E000A128A1114200A128A15F401F40AE130FF
:10193E00F5009030F60002300A128A1114200A12B5
:10194E008A150B3083120313D5002630D4005D3078
:10195E00D300D30BB02CD40BB02CD50BB02CD82B72
:10196E000A128A110028013083120313A6000030D8
:10197E00A7000A128A150A260A128A1571088312FE
:10198E000313CD007008CC004C0A031DD22C4D0A57
:10199E00031DD22CD32CEF2CF401F40AF230F500F7
:1019AE009030F60001300A128A1114200A128A159C
:1019BE00F401F40A0330F5009130F60002300A12F9
:1019CE008A1114200A128A15831203138701012E1D
:1019DE004C034D04031DF42CF52C112DF401F40AC7
:1019EE005930F5009030F60001300A128A11142099
:1019FE000A128A15F401F40AAE30F5009030F600A2
:101A0E0002300A128A1114200A128A158312031345
:101A1E000714012E02304C064D04031D172D182DF0
:101A2E00342DF401F40A7B30F5009030F6000130CD
:101A3E000A128A1114200A128A15F401F40AAE3021
:101A4E00F5009030F60002300A128A1114200A12A4
:101A5E008A15831203138714012E03304C064D048E
:101A6E00031D3A2D3B2D572DF401F40A8C30F50051
:101A7E009030F60001300A128A1114200A128A15CB
:101A8E00F401F40A0130F5009030F60002300A122B
:101A9E008A1114200A128A15831203130715012EB8
:101AAE0004304C064D04031D5D2D5E2D7A2DF40180
:101ABE00F40ABF30F5009030F60001300A128A1198
:101ACE0014200A128A15F401F40A0130F500903040
:101ADE00F60002300A128A1114200A128A15831295
:101AEE0003138715012E05304C064D04031D802D62
:101AFE00812D9D2DF401F40A9D30F5009030F600F5
:101B0E0001300A128A1114200A128A15F401F40AFD
:101B1E000130F5009030F60002300A128A111420BE
:101B2E000A128A15831203130716012E06304C066D
:101B3E004D04031DA32DA42DC02DF401F40AD030A5
:101B4E00F5009030F60001300A128A1114200A12A4
:101B5E008A15F401F40A0130F5009030F6000230D7
:101B6E000A128A1114200A128A1583120313871679
:101B7E00012E4C084D04031DC52DC62D012EF4015A
:101B8E00F40A6A30F5009030F60001300A128A111C
:101B9E0014200A128A15F401F40A1230F50090305E
:101BAE00F60002300A128A1114200A128A15043025
:101BBE00FC008E30FB001230FA00FA0BE42DFB0B0A
:101BCE00E42DFC0BE42D000083120313A601A701E4
:101BDE000A128A150D230A128A150230FC0086306D
:101BEE00FB009930FA00FA0BFA2DFB0BFA2DFC0BC9
:101BFE00FA2D012E83120313260327040319082E30
:101C0E00092EC02C0800831203138801FF30F60042
:101C1E00FF30F700F401F501013088000D30F300BC
:101C2E00FB30F200F20B192EF30B192E1E2E83121F
:101C3E0003130808F200F3017208F8007308F900A4
:101C4E0011307806790403192D2E2E2E702E213088
:101C5E00780679040319342E352E702E413078060D
:101C6E00790403193B2E3C2E702E813078067904B0
:101C7E00031D422E432E832E702E0130F6000030AF
:101C8E00F7000130F4070318F50A0030F507832E2C
:101C9E000430F6000030F7000130F4070318F50A9F
:101CAE000030F507832E0730F6000030F7000130C4
:101CBE00F4070318F50A0030F507832E0E30F600F0
:101CCE000030F7000130F4070318F50A0030F5076D
:101CDE00832E7908003A0319752E832E7808113A4F
:101CEE000319442E303A03194F2E603A03195A2E17
:101CFE00C03A0319652E832E0D30F300FB30F2002F
:101D0E00F20B872EF30B872E8C2E023083120313C9
:101D1E0088000D30F300FB30F200F20B942EF30B23
:101D2E00942E992E831203130808F200F301720801
:101D3E00F8007308F9001230780679040319A82EFA
:101D4E00A92EE92E2230780679040319AF2EB02E73
:101D5E00E92E4230780679040319B62EB72EE92EF5
:101D6E00823078067904031DBD2EBE2EFC2EE92E80
:101D7E000230F6000030F7000130F4070318F50AC0
:101D8E000030F507FC2E0530F6000030F70001306C
:101D9E00F4070318F50A0030F507FC2E0830F6009C
:101DAE000030F7000130F4070318F50A0030F5078C
:101DBE00FC2EF601F7010130F4070318F50A003086
:101DCE00F507FC2E7908003A0319EE2EFC2E780842
:101DDE00123A0319BF2E303A0319CA2E603A03196C
:101DEE00D52EC03A0319E02EFC2E0D30F300FB3039
:101DFE00F200F20B002FF30B002F052F043083128D
:101E0E00031388000D30F300FB30F200F20B0D2FA0
:101E1E00F30B0D2F122F831203130808F200F30198
:101E2E007208F8007308F900143078067904031963
:101E3E00212F222F642F2430780679040319282F9E
:101E4E00292F642F44307806790403192F2F302F51
:101E5E00642F843078067904031D362F372F772FA1
:101E6E00642F0330F6000030F7000130F40703183A
:101E7E00F50A0030F507772F0630F6000030F70030
:101E8E000130F4070318F50A0030F507772F0930F3
:101E9E00F6000030F7000130F4070318F50A0030A1
:101EAE00F507772F0F30F6000030F7000130F407FA
:101EBE000318F50A0030F507772F7908003A031951
:101ECE00692F772F7808143A0319382F303A0319EF
:101EDE00432F603A03194E2FC03A0319592F772F0B
:101EEE000D30F300FB30F200F20B7B2FF30B7B2F48
:101EFE00802F08308312031388000D30F300FB305F
:101F0E00F200F20B882FF30B882F8D2F8312031301
:101F1E000808F200F3017208F8007308F90018308F
:101F2E007806790403199C2F9D2FDF2F2830780611
:101F3E0079040319A32FA42FDF2F483078067904D4
:101F4E000319AA2FAB2FDF2F883078067904031DD3
:101F5E00B12FB22FF22FDF2F0A30F6000030F7002C
:101F6E000130F4070318F50A0030F507F22F0B3095
:101F7E00F6000030F7000130F4070318F50A0030C0
:101F8E00F507F22F0C30F6000030F7000130F407A1
:101F9E000318F50A0030F507F22F0D30F600003069
:101FAE00F7000130F4070318F50A0030F507F22F99
:101FBE007908003A0319E42FF22F7808183A03191A
:101FCE00B32F303A0319BE2F603A0319C92FC03A06
:101FDE000319D42FF22F0D30F300FB30F200F20B69
:101FEE00F62FF30BF62FFB2F7708F1007608F00093
:101FFE00080020342034203420342034203420347F
:10200E002034203420342034203420342034203422
:10201E0020342034003448346134653474347434DC
:10202E0061342034203420342034203420342034C1
:10203E002034203420342034003441343A342034D7
:10204E004134753474346F342034203420342034C9
:10205E0020342034203420342034203400344234D0
:10206E003A3420344D3461346E34753461346C340A
:10207E0020342034203420342034203420342034B2
:10208E000034563469346C346C346134203420346A
:10209E002034203420342034203420342034203492
:1020AE00203400344D346134743461347234693404
:1020BE002034203420342034203420342034203472
:1020CE002034203400344D3461346E347534613430
:1020DE006C34203420342034203420342034203406
:1020EE00203420342034003446346C346F346B3456
:1020FE006B3461347234693420342034203420340B
:10210E002034203420342034003479347434613453
:10211E002034313420347534743420342034203457
:10212E002034203420342034203400347934743474
:10213E0061342034323420347534743420342034F5
:10214E0020342034203420342034203400344634DB
:10215E006134653472346934623461346E3464349B
:10216E0020342034203420342034203420340034E1
:10217E007934743461342034313420346834653425
:10218E0069346D342034203420342034203420340B
:10219E000034793474346134203432342034683469
:1021AE00653469346D3420342034203420342034A6
:1021BE0020340034563465346C346A34613420343F
:1021CE004134203465346434613420344234203454
:1021DE0020342034003441346C346C347434203464
:1021EE00653472342034733474346F347034703414
:1021FE0020342034203400343034203474346934A4
:10220E006C342034613464342034733474346F3459
:10221E0070347034613420340034563465346C3488
:10222E006A346134203431342C3432342034653401
:10223E006434613420343334003430342034743414
:10224E0069346C342034613464342034683461343D
:10225E00653474347434613400344134203474344D
:10226E0069346C342034613464342034623479340B
:10227E0072346A3461340034563469346E347334D3
:10228E006D3461346C346534673461347334743452
:10229E000034563461346E34743461347234203404
:1022AE006B3475346234623400344B3465347934B3
:1022BE007234693472342E342E342E3400344B344E
:1022CE006134733473346934203431343A34003425
:1022DE004B346134733473346934203432343A34C9
:1022EE0000344B34613473347334693420343334F2
:1022FE003A3400344B3461347334733469342034DB
:10230E0034343A34003452346534733465347434AE
:10231E0069346E3467340034503461346C346C3448
:10232E00753472343A340034503461346C346C3455
:10233E002034333400344B346134733473346934A1
:04234E003A340034E9
:04400E00E42FFF3F5D
:00000001FF
